S01E0000456D6265646465645F46696E616C5F50726F6A6563742E737265637D
S11300000C942A000C9447000C9447000C9447006D
S11300100C9447000C9447000C9447000C94470040
S11300200C9447000C9447000C9447000C94470030
S11300300C9447000C9447000C9447000C94470020
S11300400C9447000C9447000C9447000C94470010
S11300500C94470011241FBECFE5D8E0DEBFCDBF0E
S113006012E0A0E6B0E0E8E6F6E202C005900D92E8
S1130070A232B107D9F722E0A2E2B2E001C01D9298
S1130080A932B207E1F70E94E80D0C9432130C94E4
S11300900000FC010FB6F8946091250270912602CD
S11300A080912702909128020FBE309721F060833F
S11300B07183828393830895813001F130F082301B
S11300C0B1F1833009F44CC00895413059F42AB396
S11300D081E090E002C0880F991F6A95E2F7822BB5
S11300E08ABB08952AB381E090E002C0880F991F6B
S11300F06A95E2F7809582238ABB0895413059F4CA
S113010027B381E090E002C0880F991F6A95E2F757
S1130110822B87BB089527B381E090E002C0880F4B
S1130120991F6A95E2F78095822387BB0895413031
S113013059F424B381E090E002C0880F991F6A95B6
S1130140E2F7822B84BB089524B381E090E002C0DF
S1130150880F991F6A95E2F78095822384BB0895DE
S1130160413059F421B381E090E002C0880F991F17
S11301706A95E2F7822B81BB089521B381E090E078
S113018002C0880F991F6A95E2F78095822381BB8C
S11301900895813001F130F08230B1F1833009F4F7
S11301A04CC00895413059F42BB381E090E002C073
S11301B0880F991F6A95E2F7822B8BBB08952BB3A6
S11301C081E090E002C0880F991F6A95E2F780955C
S11301D082238BBB0895413059F428B381E090E029
S11301E002C0880F991F6A95E2F7822B88BB089595
S11301F028B381E090E002C0880F991F6A95E2F766
S11302008095822388BB0895413059F425B381E059
S113021090E002C0880F991F6A95E2F7822B85BB94
S1130220089525B381E090E002C0880F991F6A9574
S1130230E2F78095822385BB0895413059F422B3B7
S113024081E090E002C0880F991F6A95E2F7822B43
S113025082BB089522B381E090E002C0880F991F09
S11302606A95E2F78095822382BB08958130C9F0B4
S113027028F0823049F18330D1F14BC029B381E0B9
S113028090E0062E02C0880F991F0A94E2F730E02E
S11302908223932302C0959587956A95E2F7982F58
S11302A038C026B381E090E0062E02C0880F991F63
S11302B00A94E2F730E08223932302C09595879550
S11302C06A95E2F7982F25C023B381E090E0062ECB
S11302D002C0880F991F0A94E2F730E08223932327
S11302E002C0959587956A95E2F7982F12C020B3BE
S11302F081E090E0062E02C0880F991F0A94E2F76D
S113030030E08223932302C0959587956A95E2F79E
S1130310982F892F0895813041F028F0823039F0E8
S1130320833039F008956BBB089568BB089565BBAD
S1130330089562BB0895CF93C82F6130A1F441E0C2
S113034060E00E945C0041E061E08C2F0E945C0050
S113035041E062E08C2F0E945C0041E063E08C2F5E
S11303600E945C0013C040E060E00E945C0040E03A
S113037061E08C2F0E945C0040E062E08C2F0E94C0
S11303805C0040E063E08C2F0E945C00CF910895F4
S1130390CF93C82F6130A1F441E064E00E945C0077
S11303A041E065E08C2F0E945C0041E066E08C2F08
S11303B00E945C0041E067E08C2F0E945C0013C047
S11303C040E064E00E945C0040E065E08C2F0E9405
S11303D05C0040E066E08C2F0E945C0040E067E037
S11303E08C2F0E945C00CF9108956F70813069F06A
S11303F028F0823089F08330B1F008958BB3807F88
S11304008BBB8BB3682B6BBB089588B3807F88BB91
S113041088B3682B68BB089585B3807F85BB85B39B
S1130420682B65BB089582B3807F82BB82B3682B3F
S113043062BB0895607F813069F028F0823089F0D2
S11304408330B1F008958BB38F708BBB8BB3682B63
S11304506BBB089588B38F7088BB88B3682B68BB67
S1130460089585B38F7085BB85B3682B65BB0895EC
S113047082B38F7082BB82B3682B62BB0895CF9323
S1130480C82F61110CC061E00E949B0160E08C2FB9
S11304900E94C80160EF8C2F0E948B010BC060E0AA
S11304A00E949B0161E08C2F0E94C8016FE08C2F99
S11304B00E94F501CF910895FF920F931F93CF935C
S11304C0DF93CDB7DEB760970FB6F894DEBF0FBEEB
S11304D0CDBF082F80E1E4E6F0E0DE011196019043
S11304E00D928A95E1F7611123C0F12C6FE0802F02
S11304F00E94F50140E06F2D802F0E94C90010E09A
S113050064E0610F802F0E94360181110DC0E1E08B
S1130510F0E0EC0FFD1F84E0F89EE00DF11D1124C6
S1130520E10FF11D808132C01F5F143049F723C0F1
S1130530F12C60EF802F0E941A0240E064E06F0DFE
S1130540802F0E94C90010E0612F802F0E94360185
S113055081110DC0E1E0F0E0EC0FFD1F84E0F89E96
S1130560E00DF11D1124E10FF11D80810FC01F5F0B
S1130570143051F706C0F39484E0F812B7CF8FEF2C
S113058005C0F39484E0F812D4CF8FEF60960FB6D1
S1130590F894DEBF0FBECDBFDF91CF911F910F91B5
S11305A0FF90089541E061E082E00E94C9008FE17C
S11305B09EE40197F1F700C0000040E061E082E0B2
S11305C00E94C9000895CF93C82F682F82E00E942B
S11305D01A0240E067E083E00E94C90061E070E035
S11305E082E090E00E94D2026C2F6295607F82E0EC
S11305F00E941A0240E067E083E00E94C90061E0C3
S113060070E082E090E00E94D2028FE99FE00197BF
S1130610F1F700C00000CF9108952FEF80E792E03A
S1130620215080409040E1F700C0000041E067E0C5
S113063083E00E945C0041E061E082E00E945C0093
S113064061E082E00E94C80182E00E94E3028FE23E
S113065095E70197F1F700C0000088E20E94E302E9
S11306608FEC97E00197F1F700C000008FE00E9443
S1130670E3028FEC97E00197F1F700C0000081E0FE
S11306800E94E3028FE19EE40197F1F700C00000AD
S113069086E00E94E3028FEC97E00197F1F700C037
S11306A000000895CF93C82F682F82E00E941A0299
S11306B041E067E083E00E94C90061E070E082E00D
S11306C090E00E94D2026C2F6295607F82E00E94CB
S11306D01A0241E067E083E00E94C90061E070E033
S11306E082E090E00E94D2028FE99FE00197F1F747
S11306F000C00000CF910895CF93DF93EC0188816F
S1130700882331F021960E94520389918111FBCFF5
S1130710DF91CF91089581E00E94E3028FE19EE48E
S11307200197F1F700C0000008959FEF980F9230F1
S113073070F49FEF960F903160F4813019F48FE7D5
S1130740860F0AC0823039F48FEB860F05C080E82B
S113075003C080E801C080E00E94E3028FEC97E0D0
S11307600197F1F700C0000008950F931F93CF93F2
S1130770DF93CDB7DEB72B970FB6F894DEBF0FBE6D
S1130780CDBF9F938F937F936F935F934F933F93CB
S11307902F9382E890E09F938F938E010F5F1F4FFA
S11307A01F930F930E942B10C8010E947C030FB665
S11307B0F894DEBF0FBECDBF2B960FB6F894DEBF04
S11307C00FBECDBFDF91CF911F910F9108957F92FE
S11307D08F929F92AF92BF92CF92DF92EF92FF924D
S11307E00F931F93CF93DF93CDB7DEB760970FB608
S11307F0F894DEBF0FBECDBF122FB32FF42FE52F19
S1130800762E872E982EA92EA0E00E94900F3CF001
S11308100F2EFFEFCF2EF1E0DF2EF02D06C00F2EAE
S1130820F4E7CF2EF0E0DF2EF02D012FFB2EEF2E7C
S1130830BE2E212F3B2F4F2F5E2F672D782D892D14
S11308409A2DA0E00E94900F34F40E94370F022FDB
S1130850F32EE42EB52EBF92EF92FF920F93DF9208
S1130860CF9280E890E09F938F938E010F5F1F4F8C
S11308701F930F930E942B10C8010E947C030FB694
S1130880F894DEBF0FBECDBF60960FB6F894DEBFFE
S11308900FBECDBFDF91CF911F910F91FF90EF90CD
S11308A0DF90CF90BF90AF909F908F907F900895EE
S11308B0CF92DF92EF92FF920F931F93CF93DF9328
S11308C0C22ED32EE42EF52E062F172FD82FC92F84
S11308D00E948B0385E890E00E947C0361E082E043
S11308E00E9495032C2D3D2D4E2D5F2D602F712FD1
S11308F08D2F9C2F0E94E7032FEF83ED90E321506F
S113090080409040E1F700C00000DF91CF911F913B
S11309100F91FF90EF90DF90CF9008950F931F9366
S1130920CF93DF93EC018C010C5F1F4F299130E0D2
S113093040E050E060E070E080E090E00E94B503A9
S1130940C017D10799F7DF91CF911F910F910895A7
S1130950DF92EF92FF920F931F93CF93DF93EB01FC
S1130960DA01F90190E001E0F12C823009F448C089
S113097030F4882369F0813009F085C025C08430C3
S113098009F476C008F458C0853009F476C07BC0F9
S113099001E0F12C10E0E92FF0E0D901AE0FBF1F08
S11309A0EB01CE0FDF1F8881882341F0E40FF51F90
S11309B0802FE081E11103C08F2D01C0812F8C9322
S11309C09F5F943040F366C001E0F12C11E0E92F01
S11309D0F0E0D901AE0FBF1FEB01CE0FDF1F8881FE
S11309E0811108C0E40FF51F802FE081E11103C0DD
S11309F08F2D01C0812F8C939F5F943040F34AC0A8
S1130A0001E0F12C11E0E92FF0E0D901AE0FBF1F96
S1130A10EB01CE0FDF1F8881882341F0E40FF51F1F
S1130A20802FE081EE2319F08F2D01C0812F8C934C
S1130A309F5F943040F32EC001E0F12C10E0E92FC9
S1130A40F0E0D901AE0FBF1FEB01CE0FDF1F88818D
S1130A50811108C0E40FF51F802FE081EE2319F007
S1130A608F2D01C0812F8C939F5F943040F312C06F
S1130A70E8801C911E25108306C0102FD880EC90AE
S1130A80DE101F2D10839F5F2196119631969430AE
S1130A9009F06BCFDF91CF911F910F91FF90EF90F1
S1130AA0DF9008950F931F93CF93DF938C01EB0195
S1130AB00E948B03C8010E948E048FE890E00E947C
S1130AC07C03CE010E948E0461E082E00E949503C3
S1130AD0DF91CF911F910F910895CF92DF92EF9202
S1130AE0FF92CF93DF936B017C010E948B0385E916
S1130AF090E00E947C0341E064E080E00E94C90031
S1130B002FEF89E698E1215080409040E1F700C042
S1130B10000040E064E080E00E94C9000E948B0372
S1130B2084EA90E00E947C0361E082E00E949503E5
S1130B30D701C6012C2D392F4A2F5B2F60E070E0BE
S1130B4080E090E00E94B503DF91CF91FF90EF9099
S1130B50DF90CF9008950F931F93CF93DF938C0171
S1130B600E948B0383EB90E00E947C0341E064E0ED
S1130B7080E00E94C9002FEF89E698E1215080406F
S1130B809040E1F700C0000040E064E080E00E9493
S1130B90C9000E948B0384EA90E00E947C0361E018
S1130BA082E00E949503E8010C5F1F4F299130E019
S1130BB040E050E060E070E080E090E00E94B50327
S1130BC0C017D10799F7DF91CF911F910F91089525
S1130BD08F929F92AF92BF92CF92DF92EF92FF9249
S1130BE00F931F93CF93DF93FC019081992331F1ED
S1130BF08F010F5F1F4FC0E0D0E0CC0FDD1FC90F86
S1130C00D11DE0970E948B034E012C2F392D40E01B
S1130C1050E060E070E080E090E00E94B5032FEFC8
S1130C2089E698E1215080409040E1F700C000003F
S1130C30F80191918F019111E0CF02C0C0E0D0E0A2
S1130C40CE01DF91CF911F910F91FF90EF90DF9034
S1130C50CF90BF90AF909F908F900895009771F0C0
S1130C60FB0140E050E04F5F5F4F282F2170205D73
S1130C702193969587950097B1F702C040E050E024
S1130C80FB01E40FF51F1082CB010E941B10089595
S1130C90CF9341E060E081E00E945C02C82F8F3F67
S1130CA0C1F341E060E081E00E945C02C817C9F32F
S1130CB02FEF81EE94E0215080409040E1F700C096
S1130CC000008C2FCF9108958F929F92AF92BF9284
S1130CD0CF92DF92EF92FF920F931F93CF93DF9304
S1130CE0CDB7DEB761970FB6F894DEBF0FBECDBFA8
S1130CF00E948B03CE0101967C0100E00E9448060D
S1130D00182F80ED810F8230E8F0133479F481E0FC
S1130D10809322020E948B039FEFE9E6F8E1915051
S1130D20E040F040E1F700C0000039C01D3331F766
S1130D30E1E0F0E0EC0FFD1FE00FF11D10820E94D6
S1130D408B030AC0812F0E945203F70111937F0184
S1130D500F5F003199F6198ACE0101960E94E805C9
S1130D604C010E948B0384EC90E00E947C0361E0C0
S1130D7082E00E949503282D392D40E050E060E088
S1130D8070E080E090E00E94B503FFEF27EA81E67F
S1130D90F15020408040E1F700C00000A9CF6196E7
S1130DA00FB6F894DEBF0FBECDBFDF91CF911F9178
S1130DB00F91FF90EF90DF90CF90BF90AF909F90F6
S1130DC08F900895EF92FF920F931F93CF93DF9329
S1130DD07B018C01EC0124960E94480690ED980F4B
S1130DE0923088F08334C1F781E0809322020E941C
S1130DF08B032FEF89E698E1215080409040E1F782
S1130E0000C0000018C0F80141918F0150E0282F64
S1130E1030E0205331094217530711F0F7011082D3
S1130E200E9452030C171D07B9F60E948B0361E060
S1130E3081E00E949503DF91CF911F910F91FF9064
S1130E40EF900895CF92DF92EF92FF920F931F934A
S1130E50CF93DC018FEF860FFD01E80FF11DE081D8
S1130E60EE23B1F170E0C12CD12C7601C1E060E039
S1130E70F0E0F097772391F090E02C2F362FA90122
S1130E80440F551F220F331F220F331F220F331F0E
S1130E90240F351F9F5F7913F2CF02C02C2F362FFA
S1130EA0E29F8001E39F100DF29F100D1124012E8B
S1130EB0000C220B330BC00ED11EE21EF31E815018
S1130EC0FD01E80FF11DE0817F5FE111D1CF03C087
S1130ED0C12CD12C7601C701B601CF911F910F917E
S1130EE0FF90EF90DF90CF900895EF92FF920F93D1
S1130EF01F93CF93DF93CDB7DEB765970FB6F89402
S1130F00DEBF0FBECDBF0E948B03CE0101967C01D4
S1130F1000E00E944806182F8D3369F5E1E0F0E007
S1130F20EC0FFD1FE00FF11D10820E948B03602F58
S1130F30CE0101960E942207DC01CB01BE016A5F4B
S1130F407F4F0E942E060E948B0385ED90E00E9445
S1130F507C0361E082E00E949503CE0106960E9424
S1130F607C039FEFE7EAF1E69150E040F040E1F7BF
S1130F7000C00000C8CF833461F40E948B032FEFBC
S1130F8089E698E1215080409040E1F700C00000DC
S1130F9007C00E945203F70111937F010F5FB9CF7D
S1130FA065960FB6F894DEBF0FBECDBFDF91CF912B
S1130FB01F910F91FF90EF9008955F926F927F922F
S1130FC08F929F92AF92BF92CF92DF92EF92FF9255
S1130FD00F931F93CF93DF93CDB7DEB7A0970FB6D0
S1130FE0F894DEBF0FBECDBF8E010F5F1F4F3801D7
S1130FF0802E572C0E948B03198A1A8A1B8A1C8AFA
S11310001D8A1E8A1F8A188E06E40E944806982E9E
S11310101BE28117A1F12DE2821799F13AE28317BD
S113102091F145E2841789F153E4851781F18DE349
S1131030981679F110E0892D0E945203F301E10F13
S1131040F11D90821F5F0E944806982E9BE289172B
S113105009F10F2EFDE2EF2EF02D8E15D9F00F2E93
S1131060FAE2FF2EF02D8F15A9F025E2821791F0F8
S113107033E4831779F04DE38413DDCF0BC010E024
S113108009C010E007C010E005C010E003C010E084
S113109001C010E0F301E10FF11D10820A3209F4DE
S11310A059C020F4053209F477C098C00B3219F006
S11310B00D3219F193C0612F882D952D0E942207BE
S11310C05B016C01262F3B2D4C2D5D2D60E070E003
S11310D080E090E0A988BA88CB88DC88ED88FE8817
S11310E00F89188D0E947E0F298B3A8B4B8B5C8B5A
S11310F06D8B7E8B8F8B988F83C0612F882D952D60
S11311000E9422077B018C0120E030E0A901698F55
S1131110FA8E0B8F1C8F2D8F3E8F4F8F58A32989EA
S11311203A894B895C896D897E898F89988DAE2C2B
S1131130BF2CC02ED12EE12CF12C00E010E00E9437
S1131140870F298B3A8B4B8B5C8B6D8B7E8B8F8BB4
S1131150988F56C0612F882D952D0E9422078B01F0
S11311609C01A02EB12EC22ED32EE12CF12C00E036
S113117010E029893A894B895C896D897E898F8938
S1131180988D0E944E0E298B3A8B4B8B5C8B6D8B0A
S11311907E8B8F8B988F34C0612F882D952D0E9464
S11311A022078B019C01A02EB12EC22ED32EE12C3E
S11311B0F12C00E010E029893A894B895C896D891A
S11311C07E898F89988D0E94A70E298B3A8B4B8B31
S11311D05C8B6D8B7E8B8F8B988F12C0612F882DCB
S11311E0952D0E9422077B018C0120E030E0A901AB
S11311F0698BFA8A0B8B1C8B2D8B3E8B4F8B588FF4
S11312000F2EFDE3FF2EF02D9F1421F003E4901622
S113121061F017C029893A894B895C896D897E8977
S11312208F89988D0E945804E5CE0E948B031FEF8E
S113123029E638E1115020403040E1F700C00000B9
S113124011C00E948B0329893A894B895C896D8975
S11312507E898F89988D0E94E703892D0E9452030D
S1131260092DD3CEA0960FB6F894DEBF0FBECDBF26
S1131270DF91CF911F910F91FF90EF90DF90CF906E
S1131280BF90AF909F908F907F906F905F900895E4
S11312900E948B0386EE90E00E947C032FEF89E688
S11312A098E1215080409040E1F700C000000E9486
S11312B08B0308950E948B0361E081E00E949503F3
S11312C087EF90E00E947C0361E082E00E94950336
S11312D087E091E00E947C030E944806813319F064
S11312E0823321F006C00E94750708950E946406A7
S11312F008950E944809DECF0E948B0387E191E0A4
S11313000E947C0361E082E00E9495032FEF81EE4E
S113131094E0215080409040E1F700C0000087E253
S113132091E00E947C03089580E090E00E944900CF
S1131330CB010E9410100E940D0341E060E081E0A7
S11313400E943F0241E060E082E00E945C0040E0D5
S113135060E082E00E94C90041E064E080E00E9415
S11313605C0040E064E080E00E94C90061E080E04D
S11313700E949B010895CF939091230291509093E2
S11313802302CFEFC80F6C2F80E00E94F501C1113A
S11313901EC088E391E00E947C0361E082E00E9429
S11313A0950385E491E00E947C032FEF89E698E1A0
S11313B0215080409040E1F700C0000083E080931A
S11313C0230263E080E00E94F50180E018C080E51C
S11313D091E00E947C0341E064E080E00E94C90047
S11313E02FEF89E698E1215080409040E1F700C05A
S11313F0000040E064E080E00E94C90081E0CF91F9
S113140008958F929F92AF92BF92CF92DF92EF9204
S1131410FF920F931F93CF93DF93CDB7DEB72D9732
S11314200FB6F894DEBF0FBECDBF0E948B0361E000
S113143081E00E9495030F2EF3E08F2EF02D0F2EE6
S1131440F6E0AF2EB12CF02D80922302682D80E0BF
S11314500E94F5010E948B0361E081E00E949503E4
S11314600E940B10B5010E943A0E982E81E08D87E0
S11314708E010F5F1F4F7E0125E0E20EF11C670114
S11314800E940B1081709078992324F401978E6F39
S11314909F6F0196F80181938F010E940B10817058
S11314A09078992324F401978E6F9F6F0196F7012A
S11314B081937F010C151D0519F791104BC09E01F6
S11314C0275F3F4FAE014B5F5F4FBE016F5F7F4FA2
S11314D080E00E94A80411E01D874FE850E0BE019F
S11314E06B5F7F4FCE0101960E945205BE01635F80
S11314F07F4FCE0109960E94E2068D85882351F024
S11315008CE591E00E947C036091230280E00E94BC
S1131510F501A2C1809123020E94BB0981110EC072
S1131520CE0109960E94AB05FFEF23ED80E3F15055
S113153020408040E1F700C0000086CF9FEFE9E63D
S1131540F8E19150E040F040E1F700C000000E9453
S11315508B03C2CF21E092124BC09E01275F3F4F05
S1131560AE014B5F5F4FBE016F5F7F4F81E00E9412
S1131570A80411E01D874DE651E0BE016B5F7F4F6B
S1131580CE0101960E945205BE01635F7F4FCE01DA
S113159009960E94E2068D85882351F08CE591E03E
S11315A00E947C036091230280E00E94F50154C1F3
S11315B0809123020E94BB0981110EC0CE010996BD
S11315C00E94AB058FEF93EDE0E381509040E04043
S11315D0E1F700C0000038CFFFEF29E688E1F150C1
S11315E020408040E1F700C000000E948B03C2CF7E
S11315F092E099124BC09E01275F3F4FAE014B5FB3
S11316005F4FBE016F5F7F4F82E00E94A80411E02C
S11316101D8742E751E0BE016B5F7F4FCE0101960B
S11316200E945205BE01635F7F4FCE0109960E945E
S1131630E2068D85882351F08CE591E00E947C03BD
S11316406091230280E00E94F50106C1809123028B
S11316500E94BB0981110EC0CE0109960E94AB0500
S1131660EFEFF3ED20E3E150F0402040E1F700C05C
S11316700000EACE8FEF99E6E8E181509040E04027
S1131680E1F700C000000E948B03C2CFF3E09F1279
S11316904BC09E01275F3F4FAE014B5F5F4FBE01C2
S11316A06F5F7F4F882D0E94A80411E01D8749E7D2
S11316B051E0BE016B5F7F4FCE0101960E9452053F
S11316C0BE01635F7F4FCE0109960E94E2068D85BD
S11316D0882351F08CE591E00E947C036091230201
S11316E080E00E94F501B8C0809123020E94BB09EA
S11316F081110EC0CE0109960E94AB052FEF83ED38
S113170090E3215080409040E1F700C000009CCE5F
S1131710EFEFF9E628E1E150F0402040E1F700C0A6
S113172000000E948B03C2CF84E098124AC09E013D
S1131730275F3F4FAE014B5F5F4FBE016F5F7F4F2F
S11317400E94A80411E01D874FE751E0BE016B5FC2
S11317507F4FCE0101960E945205BE01635F7F4F09
S1131760CE0109960E94E2068D85882351F08CE50E
S113177091E00E947C036091230280E00E94F501C5
S11317806BC0809123020E94BB0981110EC0CE015F
S113179009960E94AB059FEFE3EDF0E39150E04022
S11317A0F040E1F700C000004FCE2FEF89E698E14A
S11317B0215080409040E1F700C000000E948B035C
S11317C0C2CF9E01275F3F4FAE014B5F5F4FBE010B
S11317D06F5F7F4F85E00E94A80411E01D8745E8F4
S11317E051E0BE016B5F7F4FCE0101960E9452050E
S11317F0BE01635F7F4FCE0109960E94E2068D858C
S1131800882351F08CE591E00E947C0360912302CF
S113181080E00E94F50120C0809123020E94BB0950
S113182081110EC0CE0109960E94AB05EFEFF3EDD6
S113183020E3E150F0402040E1F700C0000004CE76
S11318408FEF99E6E8E181509040E040E1F700C075
S113185000000E948B03C2CFFFEF23ED80E3F15021
S113186020408040E1F700C00000809124028823DA
S113187009F4EACD2D960FB6F894DEBF0FBECDBFA6
S1131880DF91CF911F910F91FF90EF90DF90CF9058
S1131890BF90AF909F908F9008952F923F924F9258
S11318A05F926F927F928F929F92AF92BF92CF92EC
S11318B0DF92EF92FF920F931F93CF93DF93CDB7F5
S11318C0DEB72A970FB6F894DEBF0FBECDBF0E94D5
S11318D08B030F2EF3E04F2EF02DCE0101969A8745
S11318E08987712C812C59846A8440922302642D47
S11318F080E00E94F5010E940B1065E670E00E94F2
S11319003A0E182F082F0E940B1065E670E00E9413
S11319103A0E5C01982E0E940B10837090789923E4
S113192024F401978C6F9F6F0196811108C0BB242A
S1131930A10EB11CECE8F1E03E2E2F2E23C0813025
S113194069F4091510F40A2D912EA02EB12CA918B2
S1131950B10880E991E0382E292E14C0823041F478
S1131960A19E50011124E4E9F1E03E2E2F2E0AC07D
S1131970802F692D0E942E0EA92EB12C88E991E0AA
S1131980382E292E0E948B03202F30E040E050E0B7
S113199060E070E080E090E00E94B503832D922D1A
S11319A00E947C03292D30E040E050E060E070E0CC
S11319B080E090E00E94B50361E082E00E9495031C
S11319C08CE991E00E947C03FE0131966F01E72CC3
S11319D0F82C0E944806182F90E08D33910551F49D
S11319E0E1E0F0E0EC0FFD1FEE0DF11D10820E940E
S11319F08B031EC08334910579F481E08093220225
S1131A000E948B03FFEF29E688E1F15020408040DB
S1131A10E1F700C000004BC00E945203F60111938D
S1131A206F01FFEFEF1AFF0A28E0E216F10489F6CE
S1131A306E2D852D962D0E942207A616B706A9F4B1
S1131A400E948B038FE991E00E947C038FEF93ED5A
S1131A50E0E381509040E040E1F700C00000809155
S1131A602402882309F441CF22C0809123020E94DA
S1131A70BB09811110C0B501BB0C880B990B0E94E6
S1131A806D05FFEF23ED80E3F15020408040E1F746
S1131A9000C000002ACF9FEFE9E6F8E19150E04052
S1131AA0F040E1F700C000000E948B036BCF2A9640
S1131AB00FB6F894DEBF0FBECDBFDF91CF911F915B
S1131AC00F91FF90EF90DF90CF90BF90AF909F90D9
S1131AD08F907F906F905F904F903F902F900895DC
S1131AE00E948B0361E081E00E94950380EB91E00A
S1131AF00E947C0361E082E00E94950382EC91E005
S1131B000E947C030E944806813319F0823321F03D
S1131B1006C00E94010A08950E944D0C08950E9477
S1131B204809DECFCF93DF930E940B10EC010E9493
S1131B308B03CE0181709078992324F401978E6FE2
S1131B409F6F01969927009719F0019751F011C0E2
S1131B50109222020E944D0C80912202882321F3CC
S1131B6008C0109222020E94010A80912202882356
S1131B70D9F2DF91CF91089583E08093230263E04B
S1131B8080E00E94F5010E948B0383ED91E00E94A6
S1131B907C0361E082E00E94950381EE91E00E9463
S1131BA07C030E944806823351F0833481F08133F0
S1131BB059F481E0809324020E94920D08951092BA
S1131BC024020E94700D08950E944809DCCF0895F4
S1131BD041E060E082E00E945C0040E062E082E07C
S1131BE00E94C9000E9494098FEE91E00E947C0338
S1131BF02FEF89E698E1215080409040E1F700C042
S1131C0000000E948B0380E092E00E947C0361E06C
S1131C1082E00E94950381E192E00E947C032FEF11
S1131C2083ED90E3215080409040E1F700C0000034
S1131C300E947C090E944806823339F0833341F0C4
S1131C40813349F40E94BC0DF3CF0E94DD07F0CF2D
S1131C500E945A09EDCF0E944809EACF991B79E006
S1131C6004C0991F961708F0961B881F7A95C9F728
S1131C708095089597FB072E16F4009407D077FDFE
S1131C8009D00E949C0F07FC05D03EF490958195E5
S1131C909F4F0895709561957F4F0895DF93CF937B
S1131CA01F930F939A9DF02D219FF00D8B9DF00DA6
S1131CB08A9DE02DF10D039FF00D029FE00DF11DB3
S1131CC04E9DE00DF11D5E9DF00D4F9DF00D7F9337
S1131CD06F93BF92AF925F934F93D5010E94B00F61
S1131CE08B01AC01D7010E94B00FEB01E80FF91F83
S1131CF0D6010E949E0E2F913F91D6010E94B00FF3
S1131D00C60FD71FE81FF91FAF91BF910E949E0E07
S1131D102F913F910E94B00FC60FD71FE81FF91FE4
S1131D20D6010E94B00FE60FF71F9801BE01CF0144
S1131D3011240F911F91CF91DF9108950E94B00F4C
S1131D40460F571FC81FD91F08F431960895689489
S1131D5001C0E894F92FF12B12F00C94DB0EA0E0F3
S1131D60B0E0E5EBFEE00C944D0F092E059422F44F
S1131D700E94370F112392F4F0E80F26FFEFE0944E
S1131D80F09400951095B094C094D094A194BF0A97
S1131D90CF0ADF0AEF0AFF0A0F0B1F0B0E94E60EA1
S1131DA007FC0E94370FCDB7DEB7ECE00C94690F47
S1131DB0689401C0E8948F929F92CF93DF930E941E
S1131DC0E60EDF91CF919F908F90089588249924F7
S1131DD0F401E401B0E49F93AA279A158B049C04B0
S1131DE0ED05FE05CF05D007A10798F4AD2FDC2F34
S1131DF0CF2FFE2FE92D982C892E982F872F762F01
S1131E00652F542F432F322F2227B85031F7BF911B
S1131E1027C01B2EBF91BB27220F331F441F551F02
S1131E20661F771F881F991F881C991CEE1FFF1FB0
S1131E30CC1FDD1FAA1FBB1F8A149B04EC05FD05E4
S1131E40CE05DF05A007B10748F08A189B08EC0906
S1131E50FD09CE09DF09A00BB10B21601A94E1F64C
S1131E602EF49401AF01BE01CD01000C08956095DC
S1131E7070958095909530954095509521953F4F5C
S1131E804F4F5F4F6F4F7F4F8F4F9F4F08952F924C
S1131E903F924F925F926F927F928F929F92AF92F6
S1131EA0BF92CF92DF92EF92FF920F931F93CF9343
S1131EB0DF93CDB7DEB7CA1BDB0B0FB6F894DEBFDA
S1131EC00FBECDBF09942A88398848885F846E8400
S1131ED07D848C849B84AA84B984C884DF80EE804A
S1131EE0FD800C811B81AA81B981CE0FD11D0FB653
S1131EF0F894DEBF0FBECDBFED0108952A0D3B1D42
S1131F004C1D5D1D6E1D7F1D801F911F08952A1994
S1131F103B094C095D096E097F09800B910B0895FB
S1131F200024A7FD00942A173005400550056005DC
S1131F307005800590050895AA1BBB1B51E107C0DD
S1131F40AA1FBB1FA617B70710F0A61BB70B881F45
S1131F50991F5A95A9F780959095BC01CD010895D4
S1131F60A29FB001B39FC001A39F700D811D1124D6
S1131F70911DB29F700D811D1124911D08958F92A2
S1131F809F92AF92BF92CF92DF92EF92FF92CF9344
S1131F90DF93EC01688179818A819B8161157105E8
S1131FA08105910521F464E279ED8BE597E02DE15B
S1131FB033EF41E050E00E94DE1249015A019B01D7
S1131FC0AC01A7EAB1E40E94FD126B017C01ACEE06
S1131FD0B4EFA50194010E940B13DC01CB018C0D1D
S1131FE09D1DAE1DBF1DB7FF03C00197A109B048D9
S1131FF088839983AA83BB839F77DF91CF91FF90D6
S1132000EF90DF90CF90BF90AF909F908F90089506
S11320100E94BF0F089580E690E00E94BF0F0895CC
S1132020A0E0B0E08093600090936100A093620010
S1132030B09363000895DC01FC01672F719177234D
S1132040E1F7329704C07C916D9370836291AE176F
S1132050BF07C8F30895AEE0B0E0E1E3F0E10C940B
S1132060550F0D891E8986E08C831A8309838FEFAF
S11320709FE79E838D83AE01475E5F4F6F89788DA6
S1132080CE0101960E944D10EF81F885E00FF11FFB
S113209010822E96E4E00C94710FABE0B0E0E3E51F
S11320A0F0E10C94470F6C017B018A01FC0117825B
S11320B01682838181FFCCC1CE0101963C01F601D9
S11320C09381F70193FD859193FF81917F0188238B
S11320D009F4BAC1853239F493FD859193FF819156
S11320E07F01853229F4B60190E00E944412E7CFC3
S11320F0912C212C312CFFE1F315D8F08B3279F09F
S113210038F4803279F08332A1F4232D20611DC08C
S11321108D3261F0803369F4232D216016C0832D44
S11321208260382EE32DE4603E2E2AC0F32DF86041
S11321301DC037FC2DC020ED280F2A3040F08E3210
S1132140B9F436FC81C1232D2064322E19C036FE29
S113215006C08AE0989E200D1124922E11C0EAE058
S11321602E9E200D1124222EF32DF0623F2E08C046
S11321708C3621F4832D8068382E02C0883641F4D1
S1132180F70193FD859193FF81917F018111B3CF75
S1132190982F9F7D9554933028F40C5F1F4F9FE335
S11321A099830DC0833631F0833771F0833509F09C
S11321B059C021C0F801808189830E5F1F4F882494
S11321C08394912C530113C02801F2E04F0E511C4B
S11321D0F801A080B18036FE03C0692D70E002C012
S11321E06FEF7FEFC5010E9439124C018201F32D7C
S11321F0FF773F2E16C0280122E0420E511CF80141
S1132200A080B18036FE03C0692D70E002C06FEF7C
S11322107FEFC5010E942E124C01F32DF0683F2E72
S1132220820133FC1BC0822D90E088169906B0F41D
S1132230B60180E290E00E9444122A94F4CFF501A2
S113224037FC859137FE81915F01B60190E00E94D1
S1132250441221102A9421E0821A910881149104D5
S113226071F7E8C0843611F0893641F5F80137FE7C
S113227007C060817181828193810C5F1F4F08C008
S113228060817181072E000C880B990B0E5F1F4F24
S1132290F32DFF763F2E97FF09C09095809570959A
S11322A061957F4F8F4F9F4FF0683F2E2AE030E0BB
S11322B0A3010E948012882E861845C0853731F408
S11322C0232D2F7EB22E2AE030E025C0932D997F56
S11322D0B92E8F36C1F018F4883579F0B5C080373F
S11322E019F0883721F0B0C0E92FE061BE2EB4FEAA
S11322F00DC0FB2DF460BF2E09C034FE0AC0292F87
S11323002660B22E06C028E030E005C020E130E0AF
S113231002C020E132E0F801B7FE07C0608171819C
S1132320828193810C5F1F4F06C06081718180E0C0
S113233090E00E5F1F4FA3010E948012882E861822
S1132340FB2DFF773F2E36FE0DC0232D2E7FA22EB0
S1132350891458F434FE0BC032FC09C0832D8E7EE0
S1132360A82E05C0B82CA32C03C0B82C01C0B92CCE
S1132370A4FE0FC0FE01E80DF11D8081803321F41D
S11323809A2D997EA92E09C0A2FE06C0B394B394D7
S113239004C08A2D867809F0B394A3FC11C0A0FE72
S11323A006C0B21488F4280C922C9B180EC0B214E8
S11323B060F4B60180E290E00E944412B394F7CF37
S11323C0B21418F42B1802C0982C212CA4FE10C0AF
S11323D0B60180E390E00E944412A2FE17C0A1FC63
S11323E003C088E790E002C088E590E0B6010CC025
S11323F08A2D867859F0A1FE02C08BE201C080E2EA
S1132400A7FC8DE2B60190E00E944412891438F4CE
S1132410B60180E390E00E9444129A94F7CF8A9424
S1132420F301E80DF11D8081B60190E00E94441291
S11324308110F5CF222009F442CEB60180E290E06B
S11324400E9444122A94F6CFF6018681978102C035
S11324508FEF9FEF2B96E2E10C94630FFC01059044
S1132460615070400110D8F7809590958E0F9F1F92
S11324700895FC016150704001900110D8F78095D7
S113248090958E0F9F1F08950F931F93CF93DF9303
S1132490FB01238121FD03C08FEF9FEF2CC022FF9E
S11324A016C046815781248135814217530744F46D
S11324B0A081B1819D012F5F3F4F318320838C9395
S11324C0268137812F5F3F4F3783268314C08B01CA
S11324D0EC01FB010084F185E02D0995892BE1F6DF
S11324E0D80116968D919C911797019617969C93F7
S11324F08E931697CE01DF91CF911F910F9108957E
S1132500FA01AA27283051F1203181F1E8946F9320
S11325106E7F6E5F7F4F8F4F9F4FAF4FB1E03ED0C6
S1132520B4E03CD0670F781F891F9A1FA11D680F64
S1132530791F8A1F911DA11D6A0F711D811D911D97
S1132540A11D20D009F468943F912AE0269F11240C
S11325503019305D3193DEF6CF010895462F477070
S1132560405D4193B3E00FD0C9F7F6CF462F4F70CB
S1132570405D4A3318F0495D31FD4052419302D029
S1132580A9F7EACFB4E0A6959795879577956795CF
S1132590BA95C9F700976105710508959B01AC01CF
S11325A00A2E06945795479537952795BA95C9F7F6
S11325B0620F731F841F951FA01D0895052E97FB9E
S11325C01EF400940E94F51257FD07D00E941013C8
S11325D007FC03D04EF40C94F512509540953095B9
S11325E021953F4F4F4F5F4F08959095809570957B
S11325F061957F4F8F4F9F4F08950E94B00FA59F05
S1132600900DB49F900DA49F800D911D11240895E9
S1132610B7FF0C94FD120E94FD12821B930B0895C8
S1132620A1E21A2EAA1BBB1BFD010DC0AA1FBB1FD2
S1132630EE1FFF1FA217B307E407F50720F0A21B44
S1132640B30BE40BF50B661F771F881F991F1A94B1
S113265069F760957095809590959B01AC01BD01DB
S10B2660CF010895F894FFCFA7
S113266801000000313233253435362A3738392D04
S113267843303D2B2D00257325642E25303464000A
S11326882573256400526573756C74206973002082
S1132698414E44200057726F6E6720416E73776510
S11326A8723A2800436F727265637420416E732016
S11326B8697300202057726F6E6720416E73203A49
S11326C828202000526573756C7420696E20446557
S11326D863202D3E00526573756C7420696E204228
S11326E8696E202D3E0043686F6F73652076616CB8
S11326F86964206F6E6500315F20446563202D2D69
S11327083E2042696E2000325F2042696E202D2DE2
S11327183E20446563200043686F6F736520612021
S11327284D6F6465203A00315F425420325F436143
S11327386C20335F436F6E00596F7520686176654E
S1132748206E6F20007472696573206C656674006E
S113275854727920416761696E20210020436F72A9
S11327687265637420416E73203A292000204F5209
S11327782000204E414E442000204E4F522000207D
S1132788584F52200020584E4F522000202B200032
S1132798202D2000202A2000202520003D20004351
S11327A86F727265637420416E737765723A29009B
S11327B82043686F6F7365204F7074696F6E203A99
S11327C82000315F204C6F67696320325F204172BB
S11327D874680043686F6F73652061206D6F64656A
S11327E800312D72616E6420322D73706563002090
S11327F8202057656C636F6D65203A2920202000DE
S1132808546869732050726F6A6563742069732011
S1132818004D6164652042792041534D414B203A73
S1052828290081
S9030000FC
