S01E0000456D6265646465645F46696E616C5F50726F6A6563742E737265637D
S11300000C942A000C9447000C9447000C9447006D
S11300100C9447000C9447000C9447000C94470040
S11300200C9447000C9447000C9447000C94470030
S11300300C9447000C9447000C9447000C94470020
S11300400C9447000C9447000C9447000C94470010
S11300500C94470011241FBECFE5D8E0DEBFCDBF0E
S113006012E0A0E6B0E0E0ECF6E202C005900D92EA
S1130070A232B107D9F722E0A2E2B2E001C01D9298
S1130080A932B207E1F70E94140E0C945E130C948B
S11300900000FC010FB6F8946091250270912602CD
S11300A080912702909128020FBE309721F060833F
S11300B07183828393830895813001F130F082301B
S11300C0B1F1833009F44CC00895413059F42AB396
S11300D081E090E002C0880F991F6A95E2F7822BB5
S11300E08ABB08952AB381E090E002C0880F991F6B
S11300F06A95E2F7809582238ABB0895413059F4CA
S113010027B381E090E002C0880F991F6A95E2F757
S1130110822B87BB089527B381E090E002C0880F4B
S1130120991F6A95E2F78095822387BB0895413031
S113013059F424B381E090E002C0880F991F6A95B6
S1130140E2F7822B84BB089524B381E090E002C0DF
S1130150880F991F6A95E2F78095822384BB0895DE
S1130160413059F421B381E090E002C0880F991F17
S11301706A95E2F7822B81BB089521B381E090E078
S113018002C0880F991F6A95E2F78095822381BB8C
S11301900895813001F130F08230B1F1833009F4F7
S11301A04CC00895413059F42BB381E090E002C073
S11301B0880F991F6A95E2F7822B8BBB08952BB3A6
S11301C081E090E002C0880F991F6A95E2F780955C
S11301D082238BBB0895413059F428B381E090E029
S11301E002C0880F991F6A95E2F7822B88BB089595
S11301F028B381E090E002C0880F991F6A95E2F766
S11302008095822388BB0895413059F425B381E059
S113021090E002C0880F991F6A95E2F7822B85BB94
S1130220089525B381E090E002C0880F991F6A9574
S1130230E2F78095822385BB0895413059F422B3B7
S113024081E090E002C0880F991F6A95E2F7822B43
S113025082BB089522B381E090E002C0880F991F09
S11302606A95E2F78095822382BB08958130C9F0B4
S113027028F0823049F18330D1F14BC029B381E0B9
S113028090E0062E02C0880F991F0A94E2F730E02E
S11302908223932302C0959587956A95E2F7982F58
S11302A038C026B381E090E0062E02C0880F991F63
S11302B00A94E2F730E08223932302C09595879550
S11302C06A95E2F7982F25C023B381E090E0062ECB
S11302D002C0880F991F0A94E2F730E08223932327
S11302E002C0959587956A95E2F7982F12C020B3BE
S11302F081E090E0062E02C0880F991F0A94E2F76D
S113030030E08223932302C0959587956A95E2F79E
S1130310982F892F0895813069F028F0823089F070
S11303208330B1F00895613019F48FEF8ABB0895DA
S11303301ABA0895613019F48FEF87BB089517BA7C
S11303400895613019F48FEF84BB089514BA0895A9
S1130350613019F48FEF81BB089511BA089581308B
S113036041F028F0823039F0833039F008956BBBC6
S1130370089568BB089565BB089562BB0895CF9343
S1130380C82F6130A1F441E060E00E945C0041E0CC
S113039061E08C2F0E945C0041E062E08C2F0E949F
S11303A05C0041E063E08C2F0E945C0013C040E0DD
S11303B060E00E945C0040E061E08C2F0E945C00E1
S11303C040E062E08C2F0E945C0040E063E08C2FF0
S11303D00E945C00CF910895CF93C82F6130A1F49F
S11303E041E064E00E945C0041E065E08C2F0E94E3
S11303F05C0041E066E08C2F0E945C0041E067E015
S11304008C2F0E945C0013C040E064E00E945C00FA
S113041040E065E08C2F0E945C0040E066E08C2F99
S11304200E945C0040E067E08C2F0E945C00CF914A
S113043008956F70813069F028F0823089F083303C
S1130440B1F008958BB3807F8BBB8BB3682B6BBBF0
S1130450089588B3807F88BB88B3682B68BB0895F0
S113046085B3807F85BB85B3682B65BB089582B354
S1130470807F82BB82B3682B62BB0895607F81302A
S113048069F028F0823089F08330B1F008958BB39D
S11304908F708BBB8BB3682B6BBB089588B38F7045
S11304A088BB88B3682B68BB089585B38F7085BB00
S11304B085B3682B65BB089582B38F7082BB82B30A
S11304C0682B62BB0895CF93C82F61110CC061E003
S11304D00E94BF0160E08C2F0E94EC0160EF8C2F22
S11304E00E94AF010BC060E00E94BF0161E08C2F4D
S11304F00E94EC016FE08C2F0E941902CF910895A5
S1130500FF920F931F93CF93DF93CDB7DEB760971E
S11305100FB6F894DEBF0FBECDBF082F80E1EEE624
S1130520F0E0DE01119601900D928A95E1F76111D8
S113053023C0F12C6FE0802F0E94190240E06F2D40
S1130540802F0E94C90010E064E0610F802F0E9498
S1130550360181110DC0E1E0F0E0EC0FFD1F84E0F5
S1130560F89EE00DF11D1124E10FF11D808132C0D0
S11305701F5F143049F723C0F12C60EF802F0E94D5
S11305803E0240E064E06F0D802F0E94C90010E03D
S1130590612F802F0E94360181110DC0E1E0F0E04F
S11305A0EC0FFD1F84E0F89EE00DF11D1124E10F16
S11305B0F11D80810FC01F5F143051F706C0F39402
S11305C084E0F812B7CF8FEF05C0F39484E0F812FB
S11305D0D4CF8FEF60960FB6F894DEBF0FBECDBFB9
S11305E0DF91CF911F910F91FF90089541E061E059
S11305F082E00E94C9008FE19EE40197F1F700C0F8
S1130600000040E061E082E00E94C9000895CF93B9
S1130610C82F682F82E00E943E0240E067E083E03A
S11306200E94C90061E070E082E090E00E94F6025E
S11306306C2F6295607F82E00E943E0240E067E09A
S113064083E00E94C90061E070E082E090E00E94D3
S1130650F6028FE99FE00197F1F700C00000CF9107
S113066008952FEF80E792E0215080409040E1F719
S113067000C0000041E067E083E00E945C0041E0CC
S113068061E082E00E945C0061E082E00E94EC0193
S113069082E00E9407038FE295E70197F1F700C01B
S11306A0000088E20E9407038FEC97E00197F1F7BE
S11306B000C000008FE00E9407038FEC97E00197D1
S11306C0F1F700C0000081E00E9407038FE19EE47F
S11306D00197F1F700C0000086E00E9407038FEC49
S11306E097E00197F1F700C000000895CF93C82F59
S11306F0682F82E00E943E0241E067E083E00E94AE
S1130700C90061E070E082E090E00E94F6026C2F84
S11307106295607F82E00E943E0241E067E083E0F0
S11307200E94C90061E070E082E090E00E94F6025D
S11307308FE99FE00197F1F700C00000CF91089581
S1130740CF93DF93EC018881882331F021960E94B6
S1130750760389918111FBCFDF91CF91089581E0D8
S11307600E9407038FE19EE40197F1F700C00000A7
S113077008959FEF980F923070F49FEF960F903189
S113078060F4813019F48FE7860F0AC0823039F49F
S11307908FEB860F05C080E803C080E801C080E0CD
S11307A00E9407038FEC97E00197F1F700C0000067
S11307B008950F931F93CF93DF93CDB7DEB72B9795
S11307C00FB6F894DEBF0FBECDBF9F938F937F9378
S11307D06F935F934F933F932F9382E890E09F939F
S11307E08F938E010F5F1F4F1F930F930E9457101B
S11307F0C8010E94A0030FB6F894DEBF0FBECDBFA0
S11308002B960FB6F894DEBF0FBECDBFDF91CF910C
S11308101F910F9108957F928F929F92AF92BF92F2
S1130820CF92DF92EF92FF920F931F93CF93DF93B8
S1130830CDB7DEB760970FB6F894DEBF0FBECDBF5D
S1130840122FB32FF42FE52F762E872E982EA92E54
S1130850A0E00E94BC0F3CF00F2EFFEFCF2EF1E082
S1130860DF2EF02D06C00F2EFEE7CF2EF0E0DF2E98
S1130870F02D012FFB2EEF2EBE2E212F3B2F4F2FBD
S11308805E2F672D782D892D9A2DA0E00E94BC0F34
S113089034F40E94630F022FF32EE42EB52EBF9280
S11308A0EF92FF920F93DF92CF9280E890E09F93B4
S11308B08F938E010F5F1F4F1F930F930E9457104A
S11308C0C8010E94A0030FB6F894DEBF0FBECDBFCF
S11308D060960FB6F894DEBF0FBECDBFDF91CF9107
S11308E01F910F91FF90EF90DF90CF90BF90AF904A
S11308F09F908F907F900895CF92DF92EF92FF9216
S11309000F931F93CF93DF93C22ED32EE42EF52E95
S1130910062F172FD82FC92F0E94AF0385E890E028
S11309200E94A00361E082E00E94B9032C2D3D2DBA
S11309304E2D5F2D602F712F8D2F9C2F0E940B0445
S11309402FEF83ED90E3215080409040E1F700C009
S11309500000DF91CF911F910F91FF90EF90DF90F6
S1130960CF9008950F931F93CF93DF93EC018C01E5
S11309700C5F1F4F299130E040E050E060E070E0F0
S113098080E090E00E94D903C017D10799F7DF9166
S1130990CF911F910F910895DF92EF92FF920F93E1
S11309A01F93CF93DF93EB01DA01F90190E001E0AB
S11309B0F12C823009F448C030F4882369F0813086
S11309C009F085C025C0843009F476C008F458C005
S11309D0853009F476C07BC001E0F12C10E0E92FEA
S11309E0F0E0D901AE0FBF1FEB01CE0FDF1F8881EE
S11309F0882341F0E40FF51F802FE081E11103C04B
S1130A008F2D01C0812F8C939F5F943040F366C07B
S1130A1001E0F12C11E0E92FF0E0D901AE0FBF1F86
S1130A20EB01CE0FDF1F8881811108C0E40FF51F91
S1130A30802FE081E11103C08F2D01C0812F8C93A1
S1130A409F5F943040F34AC001E0F12C11E0E92F9C
S1130A50F0E0D901AE0FBF1FEB01CE0FDF1F88817D
S1130A60882341F0E40FF51F802FE081EE2319F075
S1130A708F2D01C0812F8C939F5F943040F32EC043
S1130A8001E0F12C10E0E92FF0E0D901AE0FBF1F17
S1130A90EB01CE0FDF1F8881811108C0E40FF51F21
S1130AA0802FE081EE2319F08F2D01C0812F8C93CC
S1130AB09F5F943040F312C0E8801C911E25108380
S1130AC006C0102FD880EC90DE101F2D10839F5F7E
S1130AD0219611963196943009F06BCFDF91CF9126
S1130AE01F910F91FF90EF90DF900895EF92FF9286
S1130AF00F931F93CF93DF937C01EB018A010E9434
S1130B00AF03C7010E94B204C8010E94A003CE0132
S1130B100E94B20461E082E00E94B903DF91CF91A8
S1130B201F910F91FF90EF900895CF92DF92EF9273
S1130B30FF92CF93DF936B017C010E94AF038FE898
S1130B4090E00E94A00341E060E083E00E94C900BD
S1130B502FEF89E698E1215080409040E1F700C0F2
S1130B60000040E060E083E00E94C9000E94AF03FF
S1130B708EE990E00E94A00361E082E00E94B90344
S1130B80D701C6012C2D392F4A2F5B2F60E070E06E
S1130B9080E090E00E94D903DF91CF91FF90EF9025
S1130BA0DF90CF9008950F931F93CF93DF938C0121
S1130BB00E94AF038DEA90E00E94A00341E060E050
S1130BC083E00E94C9002FEF89E698E1215080401C
S1130BD09040E1F700C0000040E060E083E00E9444
S1130BE0C9000E94AF038EE990E00E94A00361E077
S1130BF082E00E94B903E8010C5F1F4F299130E0A5
S1130C0040E050E060E070E080E090E00E94D903B2
S1130C10C017D10799F7DF91CF911F910F910895D4
S1130C20FC012081222361F0319680E090E0880F5E
S1130C30991F820F911DC09721912111F8CF08951A
S1130C4080E090E00895009771F0FB0140E050E0EF
S1130C504F5F5F4F282F2170205D219396958795D4
S1130C600097B1F702C040E050E0FB01E40FF51F2C
S1130C701082CB010E9447100895CF9341E060E0B9
S1130C8081E00E948002C82F8F3FC1F341E060E001
S1130C9081E00E948002C817C9F32FEF81EE94E02F
S1130CA0215080409040E1F700C000008C2FCF918C
S1130CB008958F929F92AF92BF92CF92DF92EF925C
S1130CC0FF920F931F93CF93DF93CDB7DEB7619756
S1130CD00FB6F894DEBF0FBECDBF0E94AF03CE01A6
S1130CE001967C0100E00E943D06182F80ED810FE3
S1130CF08230E8F0133479F481E0809322020E9478
S1130D00AF039FEFE9E6F8E19150E040F040E1F7EE
S1130D1000C0000039C01D3331F7E1E0F0E0EC0F12
S1130D20FD1FE00FF11D10820E94AF030AC0812F46
S1130D300E947603F70111937F010F5F003199F64A
S1130D40198ACE0101960E9410064C010E94AF033D
S1130D508EEB90E00E94A00361E082E00E94B90360
S1130D60282D392D40E050E060E070E080E090E014
S1130D700E94D903FFEF27EA81E6F150204080402A
S1130D80E1F700C00000A9CF61960FB6F894DEBF6A
S1130D900FBECDBFDF91CF911F910F91FF90EF90C8
S1130DA0DF90CF90BF90AF909F908F900895EF9277
S1130DB0FF920F931F93CF93DF937B018C01EC0180
S1130DC024960E943D0690ED980F9230A0F0833453
S1130DD0C1F781E08093220282E0F70180830E94C0
S1130DE0AF03FFEF29E688E1F15020408040E1F7AE
S1130DF000C0000018C0F80141918F0150E0282F75
S1130E0030E0205331094217530711F0F7011082E3
S1130E100E9476030C171D07A1F60E94AF0361E040
S1130E2081E00E94B903DF91CF911F910F91FF9050
S1130E30EF900895CF92DF92EF92FF920F931F935A
S1130E40CF93DC018FEF860FFD01E80FF11DE081E8
S1130E50EE23B1F170E0C12CD12C7601C1E060E049
S1130E60F0E0F097772391F090E02C2F362FA90132
S1130E70440F551F220F331F220F331F220F331F1E
S1130E80240F351F9F5F7913F2CF02C02C2F362F0A
S1130E90E29F8001E39F100DF29F100D1124012E9B
S1130EA0000C220B330BC00ED11EE21EF31E815028
S1130EB0FD01E80FF11DE0817F5FE111D1CF03C097
S1130EC0C12CD12C7601C701B601CF911F910F918E
S1130ED0FF90EF90DF90CF900895EF92FF920F93E1
S1130EE01F93CF93DF93CDB7DEB765970FB6F89412
S1130EF0DEBF0FBECDBF0E94AF03CE0101967C01C1
S1130F0000E00E943D06182F8D3369F5E1E0F0E022
S1130F10EC0FFD1FE00FF11D10820E94AF03602F44
S1130F20CE0101960E941A07DC01CB01BE016A5F63
S1130F307F4F0E9423060E94AF038FEC90E00E9433
S1130F40A00361E082E00E94B903CE0106960E94EC
S1130F50A0039FEFE7EAF1E69150E040F040E1F7AB
S1130F6000C00000C8CF833461F40E94AF032FEFA8
S1130F7089E698E1215080409040E1F700C00000EC
S1130F8007C00E947603F70111937F010F5FB9CF69
S1130F9065960FB6F894DEBF0FBECDBFDF91CF913B
S1130FA01F910F91FF90EF9008955F926F927F923F
S1130FB08F929F92AF92BF92CF92DF92EF92FF9265
S1130FC00F931F93CF93DF93CDB7DEB7A0970FB6E0
S1130FD0F894DEBF0FBECDBF8E010F5F1F4F3801E7
S1130FE0802E572C0E94AF03198A1A8A1B8A1C8AE6
S1130FF01D8A1E8A1F8A188E06E40E943D06982EBA
S11310001BE28117A1F12DE2821799F13AE28317CD
S113101091F145E2841789F153E4851781F18DE359
S1131020981679F110E0892D0E947603F301E10FFF
S1131030F11D90821F5F0E943D06982E9BE2891746
S113104009F10F2EFDE2EF2EF02D8E15D9F00F2EA3
S1131050FAE2FF2EF02D8F15A9F025E2821791F008
S113106033E4831779F04DE38413DDCF0BC010E034
S113107009C010E007C010E005C010E003C010E094
S113108001C010E0F301E10FF11D10820A3209F4EE
S113109059C020F4053209F477C098C00B3219F016
S11310A00D3219F193C0612F882D952D0E941A07D6
S11310B05B016C01262F3B2D4C2D5D2D60E070E013
S11310C080E090E0A988BA88CB88DC88ED88FE8827
S11310D00F89188D0E94AA0F298B3A8B4B8B5C8B3E
S11310E06D8B7E8B8F8B988F83C0612F882D952D70
S11310F00E941A077B018C0120E030E0A901698F6E
S1131100FA8E0B8F1C8F2D8F3E8F4F8F58A32989FA
S11311103A894B895C896D897E898F89988DAE2C3B
S1131120BF2CC02ED12EE12CF12C00E010E00E9447
S1131130B30F298B3A8B4B8B5C8B6D8B7E8B8F8B98
S1131140988F56C0612F882D952D0E941A078B0108
S11311509C01A02EB12EC22ED32EE12CF12C00E046
S113116010E029893A894B895C896D897E898F8948
S1131170988D0E947A0E298B3A8B4B8B5C8B6D8BEE
S11311807E8B8F8B988F34C0612F882D952D0E9474
S11311901A078B019C01A02EB12EC22ED32EE12C56
S11311A0F12C00E010E029893A894B895C896D892A
S11311B07E898F89988D0E94D30E298B3A8B4B8B15
S11311C05C8B6D8B7E8B8F8B988F12C0612F882DDB
S11311D0952D0E941A077B018C0120E030E0A901C3
S11311E0698BFA8A0B8B1C8B2D8B3E8B4F8B588F04
S11311F00F2EFDE3FF2EF02D9F1421F003E4901633
S113120061F017C029893A894B895C896D897E8987
S11312108F89988D0E947C04E5CE0E94AF031FEF56
S113122029E638E1115020403040E1F700C00000C9
S113123011C00E94AF0329893A894B895C896D8961
S11312407E898F89988D0E940B04892D0E947603D4
S1131250092DD3CEA0960FB6F894DEBF0FBECDBF36
S1131260DF91CF911F910F91FF90EF90DF90CF907E
S1131270BF90AF909F908F907F906F905F900895F4
S11312800E94AF0380EE90E00E94A0032FEF89E656
S113129098E1215080409040E1F700C000000E9496
S11312A0AF0308950E94AF0361E081E00E94B90397
S11312B081EF90E00E94A00361E082E00E94B90304
S11312C081E091E00E94A0030E943D06813319F061
S11312D0823321F006C00E946D0708950E945906CA
S11312E008950E944009DECF0E94AF0381E191E09E
S11312F00E94A00361E082E00E94B9032FEF81EE17
S113130094E0215080409040E1F700C0000081E269
S113131091E00E94A003089580E090E00E944900BB
S1131320CB010E943C100E94310341E060E081E067
S11313300E94630241E060E082E00E945C0040E0C1
S113134060E082E00E94C90041E060E083E00E9426
S11313505C0040E060E083E00E94C90061E080E05E
S11313600E948B010895CF93909123029150909302
S11313702302CFEFC80FEC2FF0E0EC59FF4F608150
S113138080E00E94AF01C1111FC082E391E00E947E
S1131390A00361E082E00E94B9038FE391E00E9420
S11313A0A0032FEF89E698E1215080409040E1F7B7
S11313B000C0000083E0809323026091670080E016
S11313C00E94AF0180E018C08AE491E00E94A0036B
S11313D041E060E083E00E94C9002FEF89E698E1D4
S11313E0215080409040E1F700C0000040E060E000
S11313F083E00E94C90081E0CF9108956F927F92AB
S11314008F929F92AF92BF92CF92DF92EF92FF9210
S11314100F931F93CF93DF93CDB7DEB72D970FB6FE
S1131420F894DEBF0FBECDBF0E94AF0361E081E040
S11314300E94B9030F2EF3E07F2EF02D0F2EF4E659
S11314408F2EF0E09F2EF02D0F2EF6E0AF2EB12C54
S1131450F02D70922302F401638180E00E94AF01B9
S11314600E94AF0361E081E00E94B9030E9437103B
S1131470B5010E94660E682E81E08D878E010F5F94
S11314801F4F7E01F5E0EF0EF11C67010E9437103B
S113149081709078992324F401978E6F9F6F019641
S11314A0F80181938F010E943710817090789923FD
S11314B024F401978E6F9F6F0196F70181937F014A
S11314C00C151D0519F7611052C09E01275F3F4F8F
S11314D0AE014B5F5F4FBE016F5F7F4F80E00E94A4
S11314E0CC0411E01D8746E551E0BE016B5F7F4FE0
S11314F0CE0101960E947605BE01635F7F4FCE0147
S113150009960E94D7068D85813071F48CE591E0AF
S11315100E94A003E0912302F0E0EC59FF4F6081A8
S113152080E00E94AF01C7C1823009F4D2C180912A
S113153023020E94B30981110EC0CE0109960E94B4
S1131540D305FFEF23ED80E3F15020408040E1F725
S113155000C000007ECF9FEFE9E6F8E19150E04043
S1131560F040E1F700C000000E94AF03BBCF21E0D0
S1131570621252C09E01275F3F4FAE014B5F5F4F27
S1131580BE016F5F7F4F81E00E94CC0411E01D8794
S11315904DE651E0BE016B5F7F4FCE0101960E9484
S11315A07605BE01635F7F4FCE0109960E94D70680
S11315B08D85813071F48CE591E00E94A003E09167
S11315C02302F0E0EC59FF4F608180E00E94AF01FC
S11315D072C1823009F47DC1809123020E94B30953
S11315E081110EC0CE0109960E94D3058FEF93EDB1
S11315F0E0E381509040E040E1F700C0000029CFD3
S1131600FFEF29E688E1F15020408040E1F700C077
S113161000000E94AF03BBCF92E0691252C09E014A
S1131620275F3F4FAE014B5F5F4FBE016F5F7F4F40
S113163082E00E94CC0411E01D8742E751E0BE0124
S11316406B5F7F4FCE0101960E947605BE01635FFA
S11316507F4FCE0109960E94D7068D85813071F4A3
S11316608CE591E00E94A003E0912302F0E0EC59A4
S1131670FF4F608180E00E94AF011DC1823009F4F8
S113168028C1809123020E94B30981110EC0CE01AA
S113169009960E94D305EFEFF3ED20E3E150F0400B
S11316A02040E1F700C00000D4CE8FEF99E6E8E1D6
S11316B081509040E040E1F700C000000E94AF0379
S11316C0BBCFF3E06F1252C09E01275F3F4FAE01C4
S11316D04B5F5F4FBE016F5F7F4F872D0E94CC042D
S11316E011E01D8749E751E0BE016B5F7F4FCE01DA
S11316F001960E947605BE01635F7F4FCE01099675
S11317000E94D7068D85813071F48CE591E00E94AA
S1131710A003E0912302F0E0EC59FF4F608180E0E8
S11317200E94AF01C8C0823009F4D3C08091230263
S11317300E94B30981110EC0CE0109960E94D305FF
S11317402FEF83ED90E3215080409040E1F700C0FB
S113175000007FCEEFEFF9E628E1E150F0402040B1
S1131760E1F700C000000E94AF03BBCF84E0681221
S113177051C09E01275F3F4FAE014B5F5F4FBE01DB
S11317806F5F7F4F0E94CC0411E01D874FE751E04B
S1131790BE016B5F7F4FCE0101960E947605BE01AC
S11317A0635F7F4FCE0109960E94D7068D858130F5
S11317B071F48CE591E00E94A003E0912302F0E033
S11317C0EC59FF4F608180E00E94AF0174C0823009
S11317D009F47FC0809123020E94B30981110EC0D5
S11317E0CE0109960E94D3059FEFE3EDF0E39150FB
S11317F0E040F040E1F700C000002BCE2FEF89E677
S113180098E1215080409040E1F700C000000E9420
S1131810AF03BBCF9E01275F3F4FAE014B5F5F4FCE
S1131820BE016F5F7F4F85E00E94CC0411E01D87ED
S113183045E851E0BE016B5F7F4FCE0101960E94E7
S11318407605BE01635F7F4FCE0109960E94D706DD
S11318508D85813071F48CE591E00E94A003E091C4
S11318602302F0E0EC59FF4F608180E00E94AF0159
S113187022C0823071F1809123020E94B309811148
S11318800EC0CE0109960E94D305EFEFF3ED20E3DD
S1131890E150F0402040E1F700C00000DACD8FEFC6
S11318A099E6E8E181509040E040E1F700C0000093
S11318B00E94AF03BCCFFFEF23ED80E3F150204043
S11318C08040E1F700C0000080912402882309F4DD
S11318D0C0CD2D960FB6F894DEBF0FBECDBFDF91FD
S11318E0CF911F910F91FF90EF90DF90CF90BF9019
S11318F0AF909F908F907F906F9008952F923F921A
S11319004F925F926F927F928F929F92AF92BF920B
S1131910CF92DF92EF92FF920F931F93CF93DF93B7
S1131920CDB7DEB729970FB6F894DEBF0FBECDBF93
S11319300E94AF03CE0101962C01712C812C898762
S1131940652C93E0909323026091670080E00E94ED
S1131950AF010E94371065E670E00E94660E182FF2
S1131960082F0E94371065E670E00E94660E5C0145
S1131970982E0E94371083709078992324F401974D
S11319808C6F9F6F0196811108C0BB24A10EB11CFE
S1131990ECE8F1E03E2E2F2E23C0813069F40915C6
S11319A010F40A2D912EA02EB12CA918B10880E9AB
S11319B091E0382E292E14C0823041F4A19E5001AA
S11319C01124E4E9F1E03E2E2F2E0AC0802F692D68
S11319D00E945A0EA92EB12C88E991E0382E292EA6
S11319E00E94AF03202F30E040E050E060E070E060
S11319F080E090E00E94D903832D922D0E94A003E1
S1131A00292D30E040E050E060E070E080E090E0BC
S1131A100E94D90361E082E00E94B9038CE991E05D
S1131A200E94A003FE0131966F01E72CF82C0E945E
S1131A303D06182F90E08D33910539F4F201EE0D37
S1131A40F11D10820E94AF031EC08334910579F406
S1131A5081E0809322020E94AF03FFEF29E688E130
S1131A60F15020408040E1F700C000004BC00E94CC
S1131A707603F60111936F01FFEFEF1AFF0A28E0D6
S1131A80E216F104A1F66E2D8985962D0E941A079F
S1131A90A616B706A9F40E94AF038FE991E00E944D
S1131AA0A0038FEF93EDE0E381509040E040E1F735
S1131AB000C0000080912402882309F442CF22C090
S1131AC0809123020E94B309811110C0B501BB0C9F
S1131AD0880B990B0E949505FFEF23ED80E3F150ED
S1131AE020408040E1F700C000002BCF9FEFE9E6E3
S1131AF0F8E19150E040F040E1F700C000000E949E
S1131B00AF036ECF29960FB6F894DEBF0FBECDBFDC
S1131B10DF91CF911F910F91FF90EF90DF90CF90C5
S1131B20BF90AF909F908F907F906F905F904F90F9
S1131B303F902F9008950E94AF0361E081E00E94DE
S1131B40B90380EB91E00E94A00361E082E00E946F
S1131B50B90382EC91E00E94A0030E943D06813308
S1131B6019F0823321F006C00E94FE0908950E94F4
S1131B707E0C08950E944009DECFCF93DF930E942C
S1131B803710EC010E94AF03CE0181709078992345
S1131B9024F401978E6F9F6F01969927009719F08F
S1131BA0019751F011C0109222020E947E0C809184
S1131BB02202882321F308C0109222020E94FE0907
S1131BC0809122028823D9F2DF91CF91089583E096
S1131BD0809323026091670080E00E94AF010E941D
S1131BE0AF0383ED91E00E94A00361E082E00E94D4
S1131BF0B90381EE91E00E94A0030E943D06823366
S1131C0051F0833481F0813359F481E080932402CC
S1131C100E94BD0D0895109224020E949B0D089508
S1131C200E944009DCCF089541E060E082E00E9418
S1131C305C0040E060E082E00E94C9000E948C09E0
S1131C408FEE91E00E94A0032FEF89E698E12150E6
S1131C5080409040E1F700C000000E94AF0380E0A4
S1131C6092E00E94A00361E082E00E94B90381E156
S1131C7092E00E94A0032FEF83ED90E32150804077
S1131C809040E1F700C000000E9474090E943D06E4
S1131C90823339F0833341F0813349F40E94E70DF4
S1131CA0F3CF0E94D507F0CF0E945209EDCF0E94D6
S1131CB04009EACF991B79E004C0991F961708F0F0
S1131CC0961B881F7A95C9F78095089597FB072E70
S1131CD016F4009407D077FD09D00E94C80F07FCC2
S1131CE005D03EF4909581959F4F08957095619528
S1131CF07F4F0895DF93CF931F930F939A9DF02DF9
S1131D00219FF00D8B9DF00D8A9DE02DF10D039F19
S1131D10F00D029FE00DF11D4E9DE00DF11D5E9D45
S1131D20F00D4F9DF00D7F936F93BF92AF925F9331
S1131D304F93D5010E94DC0F8B01AC01D7010E94A7
S1131D40DC0FEB01E80FF91FD6010E94CA0E2F9198
S1131D503F91D6010E94DC0FC60FD71FE81FF91F61
S1131D60AF91BF910E94CA0E2F913F910E94DC0F48
S1131D70C60FD71FE81FF91FD6010E94DC0FE60F1C
S1131D80F71F9801BE01CF0111240F911F91CF912C
S1131D90DF9108950E94DC0F460F571FC81FD91FFB
S1131DA008F431960895689401C0E894F92FF12B52
S1131DB012F00C94070FA0E0B0E0E1EEFEE00C940A
S1131DC0790F092E059422F40E94630F112392F4D3
S1131DD0F0E80F26FFEFE094F09400951095B0948E
S1131DE0C094D094A194BF0ACF0ADF0AEF0AFF0A75
S1131DF00F0B1F0B0E94120F07FC0E94630FCDB73D
S1131E00DEB7ECE00C94950F689401C0E8948F92CF
S1131E109F92CF93DF930E94120FDF91CF919F90F7
S1131E208F90089588249924F401E401B0E49F93E9
S1131E30AA279A158B049C04ED05FE05CF05D0074F
S1131E40A10798F4AD2FDC2FCF2FFE2FE92D982C6E
S1131E50892E982F872F762F652F542F432F322FBB
S1131E602227B85031F7BF9127C01B2EBF91BB2743
S1131E70220F331F441F551F661F771F881F991F8A
S1131E80881C991CEE1FFF1FCC1FDD1FAA1FBB1F40
S1131E908A149B04EC05FD05CE05DF05A007B107F8
S1131EA048F08A189B08EC09FD09CE09DF09A00B4C
S1131EB0B10B21601A94E1F62EF49401AF01BE0136
S1131EC0CD01000C0895609570958095909530959E
S1131ED04095509521953F4F4F4F5F4F6F4F7F4F28
S1131EE08F4F9F4F08952F923F924F925F926F9220
S1131EF07F928F929F92AF92BF92CF92DF92EF9296
S1131F00FF920F931F93CF93DF93CDB7DEB7CA1B16
S1131F10DB0B0FB6F894DEBF0FBECDBF09942A8841
S1131F20398848885F846E847D848C849B84AA84E9
S1131F30B984C884DF80EE80FD800C811B81AA8176
S1131F40B981CE0FD11D0FB6F894DEBF0FBECDBF41
S1131F50ED0108952A0D3B1D4C1D5D1D6E1D7F1D59
S1131F60801F911F08952A193B094C095D096E09C8
S1131F707F09800B910B08950024A7FD00942A1774
S1131F8030054005500560057005800590050895ED
S1131F90AA1BBB1B51E107C0AA1FBB1FA617B7078B
S1131FA010F0A61BB70B881F991F5A95A9F78095A7
S1131FB09095BC01CD010895A29FB001B39FC001CB
S1131FC0A39F700D811D1124911DB29F700D811D61
S1131FD01124911D08958F929F92AF92BF92CF9238
S1131FE0DF92EF92FF92CF93DF93EC0168817981C6
S1131FF08A819B81611571058105910521F464E253
S113200079ED8BE597E02DE133EF41E050E00E945C
S11320100A1349015A019B01AC01A7EAB1E40E94E9
S113202029136B017C01ACEEB4EFA50194010E946D
S11320303713DC01CB018C0D9D1DAE1DBF1DB7FFF9
S113204003C00197A109B04888839983AA83BB83FD
S11320509F77DF91CF91FF90EF90DF90CF90BF906B
S1132060AF909F908F9008950E94EB0F089580E6A3
S113207090E00E94EB0F0895A0E0B0E08093600030
S113208090936100A0936200B09363000895DC0113
S1132090FC01672F71917723E1F7329704C07C919B
S11320A06D9370836291AE17BF07C8F30895AEE0D5
S11320B0B0E0EDE5F0E10C94810F0D891E8986E016
S11320C08C831A8309838FEF9FE79E838D83AE01F0
S11320D0475E5F4F6F89788DCE0101960E9479101B
S11320E0EF81F885E00FF11F10822E96E4E00C9446
S11320F09D0FABE0B0E0EFE7F0E10C94730F6C01DF
S11321007B018A01FC0117821682838181FFCCC185
S1132110CE0101963C01F6019381F70193FD85916F
S113212093FF81917F01882309F4BAC1853239F480
S113213093FD859193FF81917F01853229F4B60146
S113214090E00E947012E7CF912C212C312CFFE1FA
S1132150F315D8F08B3279F038F4803279F0833289
S1132160A1F4232D20611DC08D3261F0803369F408
S1132170232D216016C0832D8260382EE32DE46068
S11321803E2E2AC0F32DF8601DC037FC2DC020ED73
S1132190280F2A3040F08E32B9F436FC81C1232D49
S11321A02064322E19C036FE06C08AE0989E200DA7
S11321B01124922E11C0EAE02E9E200D1124222E0D
S11321C0F32DF0623F2E08C08C3621F4832D8068F5
S11321D0382E02C0883641F4F70193FD859193FFB0
S11321E081917F018111B3CF982F9F7D95549330B6
S11321F028F40C5F1F4F9FE399830DC0833631F0A1
S1132200833771F0833509F059C021C0F80180810A
S113221089830E5F1F4F88248394912C530113C02C
S11322202801F2E04F0E511CF801A080B18036FE67
S113223003C0692D70E002C06FEF7FEFC5010E94FB
S113224065124C018201F32DFF773F2E16C0280141
S113225022E0420E511CF801A080B18036FE03C07A
S1132260692D70E002C06FEF7FEFC5010E945A1222
S11322704C01F32DF0683F2E820133FC1BC0822DEC
S113228090E088169906B0F4B60180E290E00E94CE
S113229070122A94F4CFF50137FC859137FE8191B1
S11322A05F01B60190E00E94701221102A9421E08F
S11322B0821A91088114910471F7E8C0843611F0F0
S11322C0893641F5F80137FE07C06081718182814A
S11322D093810C5F1F4F08C060817181072E000C31
S11322E0880B990B0E5F1F4FF32DFF763F2E97FF40
S11322F009C090958095709561957F4F8F4F9F4F42
S1132300F0683F2E2AE030E0A3010E94AC12882E30
S1132310861845C0853731F4232D2F7EB22E2AE04E
S113232030E025C0932D997FB92E8F36C1F018F473
S1132330883579F0B5C0803719F0883721F0B0C0FE
S1132340E92FE061BE2EB4FE0DC0FB2DF460BF2E5C
S113235009C034FE0AC0292F2660B22E06C028E028
S113236030E005C020E130E002C020E132E0F801B5
S1132370B7FE07C060817181828193810C5F1F4F1A
S113238006C06081718180E090E00E5F1F4FA30161
S11323900E94AC12882E8618FB2DFF773F2E36FE46
S11323A00DC0232D2E7FA22E891458F434FE0BC0A9
S11323B032FC09C0832D8E7EA82E05C0B82CA32C18
S11323C003C0B82C01C0B92CA4FE0FC0FE01E80D57
S11323D0F11D8081803321F49A2D997EA92E09C0A4
S11323E0A2FE06C0B394B39404C08A2D867809F083
S11323F0B394A3FC11C0A0FE06C0B21488F4280C48
S1132400922C9B180EC0B21460F4B60180E290E0E6
S11324100E947012B394F7CFB21418F42B1802C0B0
S1132420982C212CA4FE10C0B60180E390E00E94F9
S11324307012A2FE17C0A1FC03C088E790E002C09E
S113244088E590E0B6010CC08A2D867859F0A1FE8B
S113245002C08BE201C080E2A7FC8DE2B60190E0ED
S11324600E947012891438F4B60180E390E00E944F
S113247070129A94F7CF8A94F301E80DF11D8081CC
S1132480B60190E00E9470128110F5CF222009F469
S113249042CEB60180E290E00E9470122A94F6CFF8
S11324A0F6018681978102C08FEF9FEF2B96E2E1C0
S11324B00C948F0FFC010590615070400110D8F707
S11324C0809590958E0F9F1F0895FC016150704078
S11324D001900110D8F7809590958E0F9F1F089555
S11324E00F931F93CF93DF93FB01238121FD03C03F
S11324F08FEF9FEF2CC022FF16C0468157812481A5
S113250035814217530744F4A081B1819D012F5FA7
S11325103F4F318320838C93268137812F5F3F4F38
S11325203783268314C08B01EC01FB010084F18501
S1132530E02D0995892BE1F6D80116968D919C9191
S11325401797019617969C938E931697CE01DF9159
S1132550CF911F910F910895FA01AA27283051F1C4
S1132560203181F1E8946F936E7F6E5F7F4F8F4FC0
S11325709F4FAF4FB1E03ED0B4E03CD0670F781F1F
S1132580891F9A1FA11D680F791F8A1F911DA11D04
S11325906A0F711D811D911DA11D20D009F468943D
S11325A03F912AE0269F11243019305D3193DEF6E5
S11325B0CF010895462F4770405D4193B3E00FD09B
S11325C0C9F7F6CF462F4F70405D4A3318F0495D86
S11325D031FD4052419302D0A9F7EACFB4E0A69569
S11325E09795879577956795BA95C9F7009761058B
S11325F0710508959B01AC010A2E069457954795E1
S113260037952795BA95C9F7620F731F841F951FD5
S1132610A01D0895052E97FB1EF400940E9421131B
S113262057FD07D00E943C1307FC03D04EF40C94D2
S1132630211350954095309521953F4F4F4F5F4F53
S1132640089590958095709561957F4F8F4F9F4F1A
S113265008950E94DC0FA59F900DB49F900DA49F38
S1132660800D911D11240895B7FF0C9429130E9425
S11326702913821B930B0895A1E21A2EAA1BBB1BDC
S1132680FD010DC0AA1FBB1FEE1FFF1FA217B3073A
S1132690E407F50720F0A21BB30BE40BF50B661F50
S11326A0771F881F991F1A9469F760957095809514
S11326B090959B01AC01BD01CF010895F894FFCF23
S11326C001000000C0F9A4B0999282F880903132E0
S11326D033253435362A3738392D43303D2B2D00F8
S11326E02573256400526573756C742069730057F3
S11326F0726F6E6720416E737765723A2800436F7C
S1132700727265637420416E7320697300202057D0
S1132710726F6E6720416E73203A28202000526544
S113272073756C7420696E20446563202D3E0052DD
S11327306573756C7420696E2042696E202D3E00AD
S113274043686F6F73652076616C6964206F6E6592
S113275000315F20446563202D2D3E2042696E20A8
S113276000325F2042696E202D2D3E204465632097
S11327700043686F6F73652061204D6F6465203A74
S113278000315F425420325F43616C20335F436FFA
S11327906E00596F752068617665206E6F20007435
S11327A072696573206C65667400547279204167A0
S11327B061696E20210020414E44200020436F7245
S11327C07265637420416E73203A292000204F52B1
S11327D02000204E414E442000204E4F5220002025
S11327E0584F52200020584E4F522000202B2000DA
S11327F0202D2000202A2000202520003D200043F9
S11328006F727265637420416E737765723A290042
S11328102043686F6F7365204F7074696F6E203A40
S11328202000315F204C6F67696320325F20417262
S113283074680043686F6F73652061206D6F646511
S113284000312D72616E6420322D73706563002037
S1132850202057656C636F6D65203A292020200085
S1132860546869732050726F6A65637420697320B9
S1132870004D6164652042792041534D414B203A1B
S1052880290029
S9030000FC
